:10000000407E0020312801007BDC01001D2801001A
:100010001D2801001D2801001D280100000000000E
:10002000000000000000000000000000E5290100C1
:100030001D28010000000000B12901001D28010059
:100040009D2B0100EBE901009D2B01009D2B010080
:100050009D2B01009D2B01009D2B01009D2B01007C
:10006000A1E901009D2B01009D2B0100D5E90100B4
:100070009D2B01009D2B01009D2B01009D2B01005C
:100080009D2B01009D2B01009D2B01009D2B01004C
:100090009D2B01009D2B01009D2B01009D2B01003C
:1000A0009D2B01009D2B01009D2B01009D2B01002C
:1000B0009D2B01009D2B01009D2B01009D2B01001C
:1000C0009D2B01009D2B01009D2B01009D2B01000C
:1000D0009D2B01009D2B01009D2B01009D2B0100FC
:1000E0009D2B01009D2B01009D2B01009D2B0100EC
:1000F0009D2B01009D2B01009D2B01009D2B0100DC
:100100004FF0FF0C1CEAD0521EBF1CEAD15392EAFA
:100110000C0F93EA0C0F6FD01A4480EA010C4002D6
:1001200018BF5FEA41211ED04FF0006343EA501030
:1001300043EA5111A0FB01310CF00040B1F5000F72
:100140003EBF490041EAD3715B0040EA010062F121
:100150007F02FD2A1DD8B3F1004F40EBC25008BF0B
:1001600020F00100704790F0000F0CF0004C08BF29
:1001700049024CEA502040EA51207F3AC2BFD2F1F6
:10018000FF0340EAC250704740F400004FF0000304
:10019000013A5DDC12F1190FDCBF00F0004070473E
:1001A000C2F10002410021FA02F1C2F1200200FA7C
:1001B00002FC5FEA310040F1000053EA4C0308BF43
:1001C00020EADC70704792F0000F00F0004C02BF94
:1001D000400010F4000F013AF9D040EA0C0093F00F
:1001E000000F01F0004C02BF490011F4000F013B69
:1001F000F9D041EA0C018FE70CEAD15392EA0C0FD7
:1002000018BF93EA0C0F0AD030F0004C18BF31F041
:10021000004CD8D180EA010000F00040704790F017
:10022000000F17BF90F0004F084691F0000F91F0BB
:10023000004F14D092EA0C0F01D142020FD193EA81
:100240000C0F03D14B0218BF084608D180EA010009
:1002500000F0004040F0FE4040F40000704740F0E5
:10026000FE4040F44000704780F0004002E000BFD4
:1002700081F0004142001FBF5FEA410392EA030F91
:100280007FEA226C7FEA236C6AD04FEA1262D2EBDB
:100290001363C1BFD218414048404140B8BF5B42E0
:1002A000192B88BF704710F0004F40F4000020F079
:1002B0007F4018BF404211F0004F41F4000121F08F
:1002C0007F4118BF494292EA030F3FD0A2F10102D9
:1002D00041FA03FC10EB0C00C3F1200301FA03F117
:1002E00000F0004302D5494260EB4000B0F5000F3A
:1002F00013D3B0F1807F06D340084FEA310102F1F9
:100300000102FE2A51D2B1F1004F40EBC25008BFAA
:1003100020F0010040EA03007047490040EB000074
:10032000013A28BFB0F5000FEDD2B0FA80FCACF175
:10033000080CB2EB0C0200FA0CF0AABF00EBC250A2
:1003400052421843BCBFD0401843704792F0000F90
:1003500081F4000106BF80F400000132013BB5E7E3
:100360004FEA41037FEA226C18BF7FEA236C21D059
:1003700092EA030F04D092F0000F08BF08467047BE
:1003800090EA010F1CBF0020704712F07F4F04D18C
:10039000400028BF40F00040704712F100723CBF9F
:1003A00000F50000704700F0004343F0FE4040F4C9
:1003B000000070477FEA226216BF08467FEA236387
:1003C0000146420206BF5FEA412390EA010F40F472
:1003D000800070474FF0000304E000BF10F00043BE
:1003E00048BF40425FEA000C08BF704743F09643A5
:1003F00001464FF000001CE050EA010208BF7047C0
:100400004FF000030AE000BF50EA010208BF704746
:1004100011F0004302D5404261EB41015FEA010C5B
:1004200002BF84460146002043F0B64308BFA3F153
:100430008053A3F50003BCFA8CF2083AA3EBC25335
:1004400010DB01FA02FC634400FA02FCC2F1200254
:10045000BCF1004F20FA02F243EB020008BF20F08B
:100460000100704702F1200201FA02FCC2F12002F1
:1004700050EA4C0021FA02F243EB020008BF20EAE6
:10048000DC7070474FF0FF3C06E000BF4FF0010CFE
:1004900002E000BF4FF0010C4DF804CD4FEA4002DE
:1004A0004FEA41037FEA226C18BF7FEA236C11D028
:1004B00001B052EA530C18BF90EA010F58BFB2EBDB
:1004C000030088BFC81738BF6FEAE17018BF40F05B
:1004D000010070477FEA226C02D15FEA402C05D10F
:1004E0007FEA236CE4D15FEA412CE1D05DF8040B94
:1004F000704700BF844608466146FFE70FB5FFF727
:10050000C9FF002848BF10F1000F0FBD4DF808EDDE
:10051000FFF7F4FF0CBF012000205DF808FB00BFCF
:100520004DF808EDFFF7EAFF34BF012000205DF829
:1005300008FB00BF4DF808EDFFF7E0FF94BF012076
:1005400000205DF808FB00BF4DF808EDFFF7D2FF73
:1005500094BF012000205DF808FB00BF4DF808EDB6
:10056000FFF7C8FF34BF012000205DF808FB00BF83
:100570004FEA4002B2F1FE4F0FD34FF09E03B3EBB0
:1005800012620DD94FEA002343F0004310F0004FF0
:1005900023FA02F018BF404270474FF00000704746
:1005A00012F1610F01D1420205D110F0004008BFE5
:1005B0006FF0004070474FF00000704753B94AB9E0
:1005C000002908BF00281CBF4FF0FF314FF0FF305B
:1005D00000F00CB8ADF1080C6DE904CE0CF0D6FEBD
:1005E000DDF804E0DDE9022304B07047704700BF86
:1005F0001FB50B4B01934FF4B073ADF808300823CF
:100600008DF80A3083788DF80B3001A9FF23032081
:100610008DF80C3000F0D2FC05B05DF804FB00BF93
:10062000EFF900001FB50023019303930B4B0293D6
:100630000B4B1B7883B10378002B0CBF01230223E3
:100640008DF80B3001A9FF2301208DF80C3000F04C
:10065000B5FC05B05DF804FB0123F1E738010800A3
:1006600068070020F7B504460D4641B9124B5B7888
:10067000012B04D0019101A80121FFF7F3FF2368AA
:100680000E4E0F4F0733002D23F0070323600CBFDE
:100690002046002000F06AFC002556F8043B0BB110
:1006A0003846984701350F2DF7D100F0D7FC236865
:1006B0000344236003B0F0BD68070020540000200D
:1006C0006A0700202DE9F04385B0974C0390064659
:1006D00003A80D46FFF7C6FFA778E3784FF000099F
:1006E0001F44FFB2C8465FFA89F39F4200F20981B6
:1006F0000398033020F00300002D0390414618BFFB
:10070000002000F0EDFD039B21791844039081B196
:100710006379627C033020F00300002D1A440390BB
:10072000A389D2B218BF002000F034FE039B03441B
:1007300003937E4F7B68CBB1E17AB9B194F828304E
:100740000398002B00F1070014BF4023252320F05D
:10075000070014BF4FF481722822002D039018BFA8
:10076000002002F0E9FD039B03440393A17B91B1B8
:1007700023791BB97B6873B1E37A63B103980730BF
:1007800020F00700002D039018BF002005F02CFF7B
:10079000039B03440393664B1B6873B1A17961B15A
:1007A0000398E27B033020F00300002D039018BF74
:1007B00000209847039B034403935E4B1B686BB177
:1007C000217C59B10398033020F00300002D0390E1
:1007D00018BF00209847039B03440393564BD3F85C
:1007E0000080B8F1000F11D0617C79B10398237DAE
:1007F0000093033020F00300002DE37C0390A27CE3
:1008000018BF0020C047039B03440393FB697BB1DF
:10081000A17969B10398A27D033020F00300002D77
:10082000039018BF002000F0A3FE039B0344039332
:1008300094F8210080B1039AE37E217E03321944AB
:1008400022F0070242F004022B46C9B2039200F0E4
:10085000CFFE039B0344039394F8221000295AD03F
:10086000039FA28C0737002D27F007070CBF3846DF
:10087000002003970DF02EFC039B034403931DB946
:10088000A18C384608F0B4FC217F002945D094F8AB
:100890002030002B41D00398E28B073020F0070076
:1008A000002D02F12402039092B218BF00200DF037
:1008B00011FC039FA37E217E3A180332194422F0D3
:1008C000070242F004022B4694F820000392C9B2BA
:1008D00000F080FE039B0344039335B9E28B217F34
:1008E000083292B2384608F09DFCE36A23B1039BBC
:1008F00005B9E362283303930398801B05B0BDE874
:10090000F083A37A627A217AE0790DF0B5FB09F1E0
:1009100001098044E7E60F46B1E7002DE5D12A46FC
:1009200029462846DFE700BF680700205400002062
:100930009000002098000020940000208FB572B62F
:10094000194B1D6BE5B9BFF34F8F1849184BCA6897
:1009500002F4E0621343CB60BFF34F8F00BFFDE7AB
:10096000B4FBF6F4DAB20133002CF9D102F1100332
:100970006B440A2603F80C4C32B901A8A847E2E7F9
:10098000044600230A26EDE7531E04AC54FA83F410
:10099000DAB2C3B2B3FBF6F706FB1733303304F811
:1009A0000C3CB0FBF6F0E7E76807002000ED00E044
:1009B0000400FA051FB5164CA37A8DF80930637A46
:1009C0008DF80830237AADF80C3002A8E379ADF841
:1009D0000A3004F065FF18B1DB210320FFF7AEFFFA
:1009E000012301A88DF804300EF04BF908B1DF2186
:1009F000F3E7207D04F0A4FF08B1E221EDE7E07CFD
:100A000004F098FF08B1E321E7E704B010BD00BF90
:100A10006807002038B50546002840D00BF0F8FFE5
:100A200010B94FF0FF3038BD08F05EFEB0F5FA7F28
:100A3000F7D81D4C1D482563002500F039FA2946DA
:100A40003C221B4865700CF071FB26222946A01C35
:100A5000257084F82850E5620CF068FB1B22E271D7
:100A600040F21B32228140F2023240F201136281D5
:100A70001F226380A28101234FF402722371E2815D
:100A8000A37544F60112FB236282A384EFF3108462
:100A900072B600F0BDFD2CB962B62046C3E76FF018
:100AA0001500C0E72846BEE768070020B50900002A
:100AB0005400002010B5002840F0A380544C637807
:100AC000022B00F09B80A1B1002A6CD001391429BF
:100AD00000F29780DFE801F00B181B2B535B743199
:100AE0005E616F373D4A4F797C898C8F8100137826
:100AF000A37001210020FFF7E5FDB0F5803F80F2F3
:100B000083800123637010BD1378E370F1E793785D
:100B1000002B48D0D378002B45D013781A2B42D91C
:100B200053781A2B3FD91368C4F80730E1E71378DC
:100B30006279934237D32371DBE7137822799342AA
:100B400031D86371D5E71378227993422BD8637437
:100B5000CFE713783BB35378013BDBB2F82B22D8B5
:100B6000138863822B4B92789A70C2E71078607575
:100B700006F0D2FCBDE71378ABB1A375B9E71378E3
:100B8000254A52680AB1012B0DD9E372B1E71388E7
:100B9000A381AEE71378A371ABE71F491378C96946
:100BA00021B9012B04D86FF01500ACE7002BFAD067
:100BB0001378E3739DE71378082BF4D8237498E730
:100BC0001388FF2BEFD8A37393E71378E37590E7AF
:100BD00013780E2BE7D823768BE713680F49E36170
:100BE00053684B6013890B8183E71378637680E742
:100BF0001378E3767DE71378A3767AE74FF0FF303A
:100C000081E76FF02C007EE76FF00B007BE700BF01
:100C1000680700207A070020540000208407002085
:100C200070B50D460646E8B1E1B111F0070419D1DF
:100C300000F07AF8C8B130460CF05EF80C4E214650
:100C400086F834002846FFF73DFD0FF091F896F83E
:100C50003400F16A04F0C4FEFFF7ACFE02237370A7
:100C6000204670BD6FF01500FBE74FF0FF30F8E74E
:100C70006807002010B5074C6378022B05D104F0FB
:100C8000CBFE94F834000CF053F80DF06CFB002010
:100C9000607010BD6807002050B1074B03F11402CB
:100CA00053F8041B40F8041B9342F9D1002070470D
:100CB0006FF01500704700BFDE22020010B5064B32
:100CC0005C7834B904F05EFE044B054ADA602046D5
:100CD00010BD4FF0FF30FBE76807002054000020F4
:100CE000F105000010B5064B5C7834B904F064FEE1
:100CF000044B054A5A60204610BD4FF0FF30FBE719
:100D0000680700205400002025060000024B0268FE
:100D10001A600020704700BFA0070020014B1B682D
:100D2000184700BFA0070020024B1868003818BF02
:100D300001207047A007002073B52E4D031D044607
:100D40002B60284605F008FB0228064606D12949F3
:100D500020460CF079FC304602B070BD042842D128
:100D60002B78092B0AD0252B1ED0294620460CF0C3
:100D7000D0FCB0F5817F2DD3722112E005213E20F9
:100D80000CF054FC0028F0D1EB782A7901A943EA51
:100D900002236846ADF800300DF090F80028D0D05E
:100DA00053210820FFF7CAFD1A213E200CF03EFC1B
:100DB0000028DAD16B68C3F30F23ADF8043069461D
:100DC000112301A88DF806300DF07EF80028B8D068
:100DD0006521E6E70028B4D0A17820780CF026FC45
:100DE0000028B8D1ADE70828B5D1024920460CF05B
:100DF0005AFCB0E7A4070020074B4FF0FF3141F643
:100E0000FF72C3E9001205490022C1E900221F2137
:100E1000C3E90212704700BF00000020A8080020AC
:100E20003F280CD801380B4BC0F3421200F01F00D2
:100E300053F8223023FA00F000F001007047FF2839
:100E400006D04038C0F34212034B00F01F00EFE71A
:100E50000120704700000020A80800200146074B31
:100E6000006849681A4603C240F48C221A6041F0B7
:100E7000107242F4FF625A60704700BF0000002009
:100E80000246024B0068516803C370470800002007
:100E90000138064BC0F3421203EB820300F01F003F
:100EA0009B6823FA00F000F001007047000000206A
:100EB000014B1860704700BFB008002010B5FFF765
:100EC0009BFF0DF0F7FB034B1B68044603B19847EB
:100ED000204610BDB00800200B880288F0B5C3F38F
:100EE0000E049EB204F11803C57CC35A05352A448A
:100EF0002B4497B213FA82F3013B4288B3FBF7F31A
:100F000013FB07439BB29A42044A93BF22EA0603AB
:100F1000324013439BB20B80F0BD00BF0080FFFF47
:100F200010B5114B00EB41041A786389B3FBF2F35F
:100F300003FB0223013A1A44B2F5706F027928BF0D
:100F400000231A448378B2FBF3F0194403FB10200A
:100F5000091AB1FBF3F003FB101313446FEA434388
:100F60006FEA5343638110BDB408002010B5124BE3
:100F7000E0B15A78022A04D040F22B111720FFF773
:100F8000DDFC03225A70026812F0070102D04FF410
:100F90009871F3E75C685A60224402609A60BDE889
:100FA00010403C2203F10C000CF0C0B801225A7032
:100FB000C3E9010010BD00BFB40800202DE9F041D5
:100FC000254E96F801E00EF0FD0CBCF1010F04D0A7
:100FD00040F245111720FFF7B1FC91F80680B8F1F7
:100FE000080F02D940F24711F4E7CF7997B345468D
:100FF000022D726838BF02257B1D5C0002EB4303A3
:101000006A1E13446D422B408D884544013DC8F152
:1010100000022A404FF6FE75AA4202D94FF4A97188
:10102000D8E7BEF1030F12D106EB80001C1BC56888
:1010300015B140F25711CDE7C460A770228084F843
:1010400003C0087A09682071080CE080218107FB41
:1010500002337360BDE8F081B40800202DE9F04749
:10106000364C6378012B65D0032B04D040F2671116
:101070001720FFF763FCD4E901329A4202D04FF403
:10108000B571F5E72546002305F80C3B1E460E22F8
:10109000994655F82200013A58B190F804808178B9
:1010A000B8F1FF0F2FD180F804908E423CBFCEB232
:1010B0000123511CEDD103B126700E2640F6FF69C5
:1010C00055F826709FBB013EFAD2042363700020BE
:1010D000BDE8F08755F82CE0BEF1000F06D09EF871
:1010E00004A0C24504BF9EF802E077440CF1FF3C27
:1010F000BCF1000FEEDA3944FF2907D903B126709D
:101100004FF48371B4E794460027F1E70771CCE709
:1011100007EB41033846A3F80A90FFF701FF08F1F7
:101120000108BB785FFA88F18B42F1D8CBE74FF02A
:101130000008F6E7022360686370C9E7B40800207E
:10114000F8B54FF6FF730380184B03EB8103054698
:10115000D868B8B186780379B3FBF6F206FB123390
:10116000DBB219460A1D00EB4202B2F90270548844
:10117000002F09DB0131B1FBF6F206FB1211C9B2F7
:101180008B42EFD10020F8BDFF29FBD0C4F30E0342
:10119000C4782B8024B94FF4D9711720FFF7CEFB08
:1011A0005380BDE8F8400CF046BF00BFB4080020F3
:1011B0001D4B03EB810370B5DC68054644B30304A3
:1011C00004D54FF4E0711720FFF7B8FB0146204625
:1011D0000CF013FFFF28014604D02046BDE8704004
:1011E0000CF029BFA078B5FBF0F300FB1353DBB282
:1011F00019460A1D04EB4206B6F90260002E09DB0F
:101200000131B1FBF0F200FB1211C9B28B42F0D1F7
:10121000002070BDFF29FBD08B4204EB42021CBFB3
:101220000023E3705580D8E7B4080020094B03EB96
:10123000810310B5DC68014620460CF0DEFEFF2875
:10124000014604D02046BDE810400CF0F4BE00205A
:1012500010BD00BFB4080020F8B5104B03EB8103AC
:101260000746DC68014620460CF0C7FEFF2805460D
:1012700011D0E688238953EA064606D00146204667
:101280000CF0D9FE01463846B04720462946FFF704
:1012900047FE0020F8BD0320FCE700BFB408002093
:1012A00038B50E4B827903EB82030446D86808B93F
:1012B000022038BD8278E1799142F9D24B1CE3716A
:1012C00000EB41035D89B3F90A30002BF3DBA58005
:1012D0000CF0B1FE20600020EBE700BFB408002056
:1012E00070B5044610F003000E4603D049211820C3
:1012F000FFF724FB0CF039FE054624B103483146C4
:1013000004600CF032FE284670BD00BFFC080020CF
:101310002DE9F04F1E4C85B092462268BDF83CB0D6
:1013200098468146BDF838300D461AB95B21182021
:10133000FFF704FB1A460A21504603930CF0F0FD18
:101340005A460646092140460CF0EAFD3118074688
:1013500020680CF028FE039BC9F8000018B928602B
:1013600005B0BDE8F08F84192C60D9F80000009317
:10137000524631460A230CF0ABFD2868CDF838B050
:1013800009234246394605B0BDE8F04F0CF0A0BD38
:10139000FC080020F8B511441D4EC9B210F0030539
:1013A000317003D04D210920FFF7C8FA1F2B19D83F
:1013B0009B009BB2033323F003039BB208B1706020
:1013C000338101EB81047668E2004FF0010C00EB01
:1013D000C404EFB2B94212D8D01D03FB010020F0C3
:1013E0000700F8BDFF2B4FEA430204D9FF339342B5
:1013F000DFDB93B2DEE77C2AFBDC7C23DAE710B18B
:1014000086F800C07460013528361C44E1E700BF4F
:101410000009002038B5144A147853680021C8B276
:10142000844203D8A8210920FFF788FA1846013121
:1014300005782833002DF2D0002181700124128913
:10144000447044688161C161920800F12001051D6A
:1014500021F8022B994245F8044B1444F8D100239B
:101460004361037038BD00BF000900200A4B1B898F
:10147000B3F5FF7F4FEA930006D25A089B1A9BB23E
:10148000984238BF18467047B3F5EE6F01D8FF2277
:10149000F4E740F27263F3E7000900202DE9F84316
:1014A0004B7880460C4602F0040602F0FB07D3B1ED
:1014B000DFB12E4BD4F804901D89B7BB01236370B4
:1014C000AD08A761E76104F120034A46211D04F13C
:1014D000280023F8025B984241F8042B2A44F8D1F3
:1014E0000023636101E0002FE3D0FF23A370002EEF
:1014F00018BF0226A3191B7D032B03D1022F1CBF8B
:101500000136F6B2A31901221A7506F10C0204EB9A
:101510008606002324F812307268A370C8F80020F1
:10152000A8F804304046BDE8F88300211422617019
:10153000A0180BF0FBFDB5F5FF7F0FD26B08ED1A7D
:10154000ADB209EB0502C4F804902584A26063845F
:10155000C4F80C90A5842261E384C6E7B5F5EE6F6C
:101560004FF0FF03EBD940F27265EAE70009002073
:101570002DE9F74305460C46F720052190460CF06F
:10158000CFFC064685B115F0030703D08F21192043
:10159000FFF7D4F9DFF83890C9F81050A9F8140013
:1015A000A5B2BBB29D4204D806FB04F003B0BDE86F
:1015B000F083B9F814C0D9F81000CDF8008007FB0B
:1015C0000C000523F72231460CF082FC0137E8E7D6
:1015D0001409002007B5CDE900230B460349024654
:1015E000081D0CF09AFE03B05DF804FB2C090020E6
:1015F00013B5064CCDE900230B46024604F1080161
:1016000004F10C000CF089FE02B010BD2C09002082
:10161000134B012200214FF0FF309A60C3F80012F3
:10162000C3F80803C3F80015C3F804259A60C3F88B
:101630000803C3F80015C3F804250A490A4A03F54C
:1016400080334FF40040C3F80825C1F88000BFF391
:101650004F8FBFF36F8FC1F88001C3F80825704723
:1016600000F0004000E100E00000F63F014B18767A
:10167000704700BF40090020F0B583B00023044646
:1016800001A8019307F0D6FD019B03F00303002B93
:101690000BBF182522250F2619260CBF00270A2765
:1016A0000BF06CFE38B120460EF038FA70B905F137
:1016B000610003B0F0BD0BF0BDFD00280CBF3D463E
:1016C000354620460EF02AFA0028F0D020460EF0CB
:1016D0000BFA18B105F15A0003B0F0BD20460EF028
:1016E00007FA0028F6D105F15000E2E72DE9F047AE
:1016F000002800F0DA800446082900F2CB80DFE8F9
:1017000001F091A92424A5C91F9CC50001462046CB
:101710000EF077F9D4F83C3100F1F7059D4240F224
:10172000BD80E81A322838BF322003210AF00EFEAD
:10173000C4F83C51064620460EF01DFA002E7AD021
:101740002046BDE8F0470EF01ABAFFF795FFB4F84F
:101750003231A4F840010022062B84F8382184F8A5
:10176000432100F28C800133A4F8323104F59C75DA
:10177000284609F0A5FE002800F09B8094F8583117
:1017800003F0FF01002B72D1D4E954026FF0004343
:101790009A4208BFB0F1FF3F12D02046D4E9526709
:1017A0000EF02FF9D4F85031D4F854219B1B00F1DE
:1017B000F70062EB07021B1A62F10002002A53DBFA
:1017C00094F81001294609F091FF00287BD0D4F845
:1017D0004851D4F82871D4F84C61D4F82C81AF4228
:1017E00078EB060327D220460EF048F950EA0103B1
:1017F00081468A461FD0E81B4A4666EB08015346DD
:101800000BF07EFBD4E94A3209FB01F100FB0A111F
:10181000A9FB009013EB0903014441EB0201C4E969
:101820004A3108E005F0B4FDD4F83C01E7380AF08D
:10183000E3FC002842D0BDE8F08790F8100109F0E1
:101840000BFE002384F83031BDE8F087BDE8F04797
:1018500007F040B80EF050F900283FF457AF20468B
:10186000BDE8F0470EF087B9204605F099FD94F8E1
:10187000100109F0F1FD002384F83031A7E7D4F816
:10188000143173B1012384F842316FE7F221302023
:10189000FFF754F8F6213020FFF750F8C4F83C5118
:1018A000DDE7022384F8423160E7D2213020FFF7E0
:1018B00045F840F29F613020FFF740F840F2812167
:1018C0003020FFF73BF840F2A3613020FFF736F8F5
:1018D000D0F81401704700BF2DE9F04385B0002314
:1018E0000322CDE9003301268DF806206846FFF774
:1018F000D7FC044620BB009D95F83031002BF5D075
:1019000085F85861012128460EF03BF995F83031F1
:10191000002BEBD095F810010AF0F4F995F81001BE
:101920000AF03EFE95F8100109F096FD00283CD023
:1019300085F830416846FFF7B3FC04460028DAD04A
:10194000DFF87C80012388F81030002502264FF64E
:10195000FF771AE0029BE3B193F88423202A18D082
:101960001888B8421BD00221FFF760FC814608B3FB
:1019700090F884030AF014FE99F8840389F83C4334
:1019800009F06AFD202389F88433CDE902558DF8EA
:101990000E6002A8FFF784FC04460028DAD000207D
:1019A00088F8100005B0BDE8F08340F20D2130202A
:1019B000FEF7C4FF40F229113020FEF7BFFF00BF41
:1019C0000C0A0020054B0022012142F210701A720D
:1019D000588219701A74FFF77FBF00BF0C0A0020ED
:1019E00090F83031002B40F0A3802DE9F0410446FF
:1019F0000F4601465648154603F0FF0809F000FD62
:101A0000202806466DD04146502204F588700BF020
:101A10008DFB012384F81061C4F8147184F830310F
:101A200037B104F06DFD00F00700013087F828039E
:101A30002046FFF721FE00270223A4F84001A4F866
:101A4000423184F8387107F055FEB4F840619D3694
:101A500006442046B6B20EF04FF8002844D00DF0F0
:101A6000B3F900F5CD6189B2284607F013FE28448A
:101A7000C4F83C010EF0F2F9301841F100010126E2
:101A8000C4F84801C4F84C1184F81861E784204672
:101A90000EF048F8002843D0314620460DF0B1FF43
:101AA000A5F2F3452D1AC4F81C514FF0FF326FF028
:101AB0000043C4E9542394F8100104F59C7109F023
:101AC00015FE00283ED0D4E9522300252046C4E963
:101AD0004A23A4F8325129460EF053F82846BDE8AF
:101AE000F0810C20BDE8F081014620460DF089FF11
:101AF000184FF730C4F83C01788A08B1E08CC8B9B7
:101B000006440EF0ABF9361841F10001C4E9526108
:101B1000002DCAD0AE1941F10001C4E95461CAE7F1
:101B200030460EF0D3F8F73D2D1AC4F81C51BCE72F
:101B30000C20704704F0E4FC7B8AB0FBF3F202FB5C
:101B40001300DDE740F2EF113020FEF7F7FE00BF93
:101B5000ED1600000C0A002090F830310BB900207F
:101B6000704710B50121044680F858110EF009F8AD
:101B700094F830310BB9002010BD94F810010AF030
:101B8000C1F894F810010AF00BFD94F8100109F067
:101B900063FC20B1002384F83031002010BD40F2F6
:101BA0000D213020FEF7CAFE014B1872704700BFAE
:101BB0000C0A002090F8582182B910B502F0FF04F9
:101BC00090F8182112B90122104610BDD0E9473112
:101BD0009942F9D905F0E4FB2246F5E700221046C8
:101BE000704700BF08B54FF4FF710DF0B4FBB0F5BE
:101BF000296F28BF4FF4296080B208BDF8B50446AC
:101C000051B1012962D1002380F8183106F034FA6D
:101C1000BDE8F84009F04EBAC58C002D4ED12046E3
:101C2000D4E94A760DF02AFF401941F10001C019AC
:101C300046EB010602230022C4E95206A4F8423111
:101C400084F838212046FFF717FDD4E9525694F85E
:101C50005831A4F84001C4E94A5603F0FF017BB9AA
:101C6000D4E954026FF000439A4208BFB0F1FF3F3D
:101C70000FD194F8100104F59C7109F037FD50B3B1
:101C80000023A4F8323106F0F7F9BDE8F84009F076
:101C900011BA20460DF0B5FED4F85031D4F85421D5
:101CA0005B1B00F1F70062EB06021B1A62F10002F7
:101CB000002ADEDA204605F073FBE1E704F008FCB9
:101CC000E58CB0FBF5F303FB1505A8E74FF4F561D0
:101CD0003020FEF733FE40F2FA613020FEF72EFE90
:101CE00090F83001704700BF014B5882704700BF29
:101CF0000C0A002018230B70704700BF08B54FF482
:101D00002B713220FEF71AFE044B1B680022A3F849
:101D1000B22083F8B42083F870207047200A002096
:101D200008B504F07FFA034B187006F0F5F80320AD
:101D300008BD00BF1000002038B50D4D2C6894F888
:101D4000853063B90023012184F87010A4F8B23003
:101D500084F8B4302046BDE8384002F033BE06F0C7
:101D600031FD05F01FFC002384F885302C68E9E77D
:101D7000200A002010B50D4C236893F85030032B37
:101D80000BD1606860B106F0B5FC002006F0EAFCFB
:101D90002368042283F8702010BD01F0F9FAF1E7FE
:101DA00040F2F2413220FEF7C9FD00BF200A0020B8
:101DB00038B5204D2B6893F87020022A35D8027C64
:101DC00083F88020C16859671A44044692F8B52008
:101DD00083F8B1204268DA67037A022B02D1637C70
:101DE000CBB938BD05F090FE06F0ECFC05F0DAFB4F
:101DF000114806F069FC114806F060FC104805F037
:101E0000ADFF2B6893F868305BB901200BF044FA02
:101E1000637C002BE5D02868BDE8384060300CF0CA
:101E2000E5BF02200BF038FAD9E740F6D5013220A1
:101E3000FEF784FD200A00200801002055555500BA
:101E4000D6BE898E70B5414C236893F87020032A62
:101E5000064626D093F87020042A22D093F850200A
:101E6000032A4ED16568002D51D06EBB93F87020C7
:101E7000022A56D993F87020082A57D893F8703060
:101E8000A26803F180435269033B52F8233098471C
:101E90000C2841D8A368DB68BDE8704053F82030B7
:101EA000184793F85020032ADCD001F071FA054658
:101EB0006DB3236893F85020013A022AD5D941F234
:101EC00046313220FEF73AFD28460DF0FBF918B9ED
:101ED00028460DF012FAC0B1236893F87020022A48
:101EE00029D993F87020082A2AD893F87030A2686C
:101EF00003F180431269033B284652F82330984788
:101F0000C6E701F077FA0546D2E72368AEE74FF45B
:101F10009A513220FEF712FD41F25B313220FEF77A
:101F20000DFD41F226313220FEF708FD41F2273146
:101F30003220FEF703FD41F2C6213220FEF7FEFCFF
:101F400041F2C7213220FEF7F9FC00BF200A002031
:101F500008B540F243313220FEF7F0FC30B504788A
:101F60008DB004F00F0402A9224601F02DFC05F00B
:101F7000D3FF04F057F9214B042C187002D0032032
:101F80000DB030BD1E49039A09681478054691F8D2
:101F900093008442F3D1547891F894008442EED1B6
:101FA000947891F895008442E9D1D47891F896001C
:101FB0008442E4D1147991F897008442DFD15079BA
:101FC00091F898209042DAD19DF8190091F89A2062
:101FD0009042D4D17F2D0ED07F221A7002A891F8A2
:101FE000993091F8A82091F88210009501F03CFBFF
:101FF00003200DB030BDFFF7ABFF00BF1000002085
:10200000200A00202DE9F047044684B006290CD8A8
:10201000DFE801F06822110B0B0B0400B74D2A68B2
:1020200092F88B30002B40F0838005F075FF032081
:1020300004B0BDE8F08705F06FFFB04B1A6892F866
:102040008B302BB192F85030013B012B40F2DE80F7
:10205000032004B0BDE8F087A84F837C396891F86D
:10206000865091F88BA0012B85F001057ED00026CB
:1020700091F85030032B00F0BF8091F88180B8F1C7
:10208000080F40F0A88091F841804FF000094046C9
:10209000032B75D1636891F857201E78964200F0A3
:1020A0005081002691F88130082B04D091F88420CB
:1020B0009A4208BF0126B9F1000F40F0A580002D1B
:1020C00040F0E080BAF1000FAFD03B6893F8523097
:1020D000012B03D0002BA8D1002EA6D0002DA4D018
:1020E0000A20A5E7854D2A6892F88B30002B9CD0FA
:1020F00092F85030022B00F0CC80012B00F0588178
:10210000032B40F06C81436892F85710187888428E
:1021100000F0938092F85230012BE1D092F8843095
:10212000082B82D092F881209A427FF47EAFD7E7C5
:1021300092F85030022B00F0C680012B7FF475AF6F
:102140006F4991F900307F2B00F04781029392F89C
:102150009930019392F8823000937F250D70FF2310
:102160004232062101F0B6F9032061E783685E7907
:1021700006F0C006A6F14006B6FA86F6760977E7BD
:1021800005F0CAFEBAF1000F3FF462AF3968A368E8
:1021900091F84100A27C42310CF030FE18B9B9F13F
:1021A000000F00F0AF80564D95F900307F2B00F006
:1021B00014813A68029392F89910019192F8821072
:1021C000009120467F244346423201212C7001F0C9
:1021D00081F903202CE7404603F0ECFD002818BFEE
:1021E0000546002E40F0D280396891F8418091F880
:1021F0005030B14640464BE791F84920002A3FF461
:102200003CAF91F884803AE701255BE73C4991F9BE
:1022100000307F2B00F0E180029392F89930019317
:1022200092F8823000937F2520460D70FF234232C2
:10223000022101F04FF90320FAE6587892F858107D
:1022400088427FF467AF987892F8591088427FF4FB
:1022500061AFD87892F85A1088427FF45BAF187952
:1022600092F85B1088427FF455AF597992F85C3050
:1022700099427FF44FAF617C92F8563099427FF4D7
:1022800049AF2DE7A368A27C42310CF0B7FD0546AB
:1022900018E71B4991F900307F2B00F09E800293D4
:1022A00092F89930019392F8823000937F24FF23B3
:1022B00042320C70002101F00DF92B68012283F8E5
:1022C000A8200920B4E60E4991F900307F2B00F0D8
:1022D0008480029392F89930019392F882300093AF
:1022E0007F24FF2342320C70062101F0F3F82B68A3
:1022F000002283F8A82009209AE600BF200A0020C7
:10230000100000203A6892F85130023B012B3FF652
:102310009FAE002E3FF49CAE334991F900307F2BE5
:102320005BD0029392F89930019392F88230009337
:102330007F250D70FE2342322046012101F0CAF8AC
:1023400086E65E7891F8582096427FF4AAAE9E7891
:1023500091F8592096427FF4A4AEDE7891F85A2085
:1023600096427FF49EAE1E7991F85B2096427FF4F0
:1023700098AE5A7991F85C309A427FF492AE667CBE
:1023800091F85630F31A5E425E418BE6A1684046F2
:1023900003F04AFE3968814691F8410091F85030C7
:1023A0008046B9F1000F3FF473AE40F002086FE6CB
:1023B0000D4991F900307F2B0FD0029392F899309C
:1023C000019392F8823000937F250D70FF234232F3
:1023D000002101F07FF803202AE6FFF7B9FD40F65F
:1023E000F5413220FEF7AAFA1000002010B5104A7D
:1023F000136893F8701002290FD993F87010082908
:1024000010D893F87030926803F180439268033BD0
:10241000BDE8104052F82330184741F23D413220C8
:10242000FEF78CFA41F23E413220FEF787FA00BFF8
:10243000200A00202DE9F0416A4C6368D4F800803E
:10244000002205461A8018460F4606F053F9032D60
:1024500031D0052D4BD0606808F193010CF082FD5E
:1024600098F89A1060680CF091FD236893F8862024
:1024700093F8417003F142065AB193F85020032AB1
:102480002ED093F8810003F009FE00281CBF0646F9
:102490000127606831460CF05EFD606839460CF03B
:1024A00068FD514BD3F80431002B40F09680052D88
:1024B0000BD0BDE8F0816068037823F00F0343F090
:1024C000030303700C234370C6E723683168DA6C9A
:1024D000C2F80A10B188D181DB6C5F72BDE8F0816F
:1024E00093F84920002ACCD093F88400CBE7D4E9B4
:1024F0000006317821F02F0141EA471141F0050132
:10250000222331707370C36C1B6AC6F80F30C26C23
:10251000936BF3741F0A1B0C37757375D369B2F88C
:10252000407041F64B518B42D16B3BD9DFF8BCC0B8
:10253000ACFB01E1890AACFB07C7BF0AF175C1F327
:102540000721B77531762949A1FB0313C3F38F2304
:1025500073761B0AB376938CF3761B0A3377D38C8E
:1025600073771B0AB377D2F8CF30C6F81F3092F8D2
:10257000D33086F82330C36C96F8242093F8DA30F1
:1025800022F01F0203F01F03134386F8243003F0E8
:10259000A5FA96F8243003F01F0343EA401386F8A7
:1025A000243058E7DFF848C0ACFB01E14909ACFB37
:1025B00007C77F09F175C1F30721B7753176A3F518
:1025C0007A7741F270718F42BDD80A49A1FB03139B
:1025D0009B0903F550639BB2BAE740F237613220A2
:1025E000FEF7ACF9200A0020001000405917B7D1BF
:1025F0001F85EB51D34D621010B503F013FE0B4A4B
:102600000B4B1468187094F885301BB905F084FCE6
:10261000032010BD06F0D6F804F0C4FF002384F8B0
:10262000853005F079FC032010BD00BF200A002092
:102630001000002038B50D4D2C6894F8853063B932
:102640000023012184F87010A4F8B23084F8B4306B
:102650002046BDE8384002F0B5B906F0B3F804F002
:10266000A1FF002384F885302C68E9E7200A0020C8
:1026700070B5164D00210320FFF7DCFE286803210A
:1026800002F034F940B10121084606F0B5F82B6894
:10269000092283F8702070BD2E6896F8853063B9E2
:1026A0000023012186F87010A6F8B23086F8B43005
:1026B0003046BDE8704002F085B9044606F082F865
:1026C00004F070FF86F885402E68E9E7200A0020B4
:1026D00070B5B8B9A9B11E4A136893F870100829EB
:1026E0002CD993F870100C292DD893F8703092687B
:1026F00003F180435268093BBDE8704052F8233033
:10270000184770BD124D2C6894F885306BB904F1F0
:10271000B2020023012184F87010A4F8B230937043
:102720002046BDE8704002F04DB906F04BF804F0C9
:1027300039FF002384F885302C68E8E741F20D4129
:102740003220FEF7FBF841F20E413220FEF7F6F898
:10275000200A00202DE9F04305468FB003F062FD0A
:102760002C788A4B024604F00F041A702846224641
:1027700004A901F029F8072C57D10598002800F08A
:10278000A2809DF82130012B00F0CF80804D2B6876
:1027900093F88100082869D002AA0DF1070103F01F
:1027A00053FB002800F0E9809DF8070002A90CF017
:1027B00003FE06462F68062C97F8499000F2988091
:1027C000B9F1000F18BF4E46B846724B87F88B60C0
:1027D0001B6833B1002104A8984788F88C00D5F80D
:1027E0000080059B4BB19DF8212088F89A201A683B
:1027F000C8F893209B88A8F8973098F88C3001206F
:10280000002B00F0BF80069B0BB1072C4DD021465A
:1028100004A8FFF7F7FB2D6895F885300446002BD8
:1028200038D120460FB0BDE8F083059E002E7AD047
:102830009DF82130012BA9D1737903F0C003402BFF
:10284000A4D1534D2E6896F88530002B00F0868079
:102850000CF009FB2B6886F8810093F8810083F85F
:1028600082000122082883F8892095D105999DF8D6
:1028700021000CF0A1FD2A680599064681329DF8D9
:10288000210003F0BFFA002894D1D5F80080A8F801
:102890008B00B8E705F096FF04F084FE0023204685
:1028A00085F885300FB0BDE8F08398F881100829CD
:1028B000ADD00028ABD0184603F0FCFA2B680122FB
:1028C00083F88A20A3E7324D2B68012683F88B60BA
:1028D00093F8AB30002B9AD02B68D3F8AC00503073
:1028E0000DF011FA002892D12B6883F88C608EE7E6
:1028F000082C36D8059B002B7FF462AF9DF8113071
:10290000DB0631D400F04AFF30B1D5F8008098F8EA
:102910008B60002E7FF459AFB9F1000F27D0D5F8A6
:1029200000804E4651E71A4D44E7437903F0C00357
:10293000402B7FF42BAF164D2E6896F885306BB187
:1029400096F8B110012983D103F096FA86F8850034
:102950002E6896F88530002B7FF47AAF96F88100C8
:1029600018E7B846002630E7B84601262DE703F001
:1029700043FAD5F80080064627E740F65131322069
:10298000FDF7DCFF98F88B003DE700BF100000204A
:10299000200A00209C000020F0B55B4C83B000F0C2
:1029A0003DFD236893F85030032B6FD16568002DEF
:1029B00000F0A480206890F8803090F870200344E4
:1029C00093F8B56080F8B1601AB190F87030012BBF
:1029D0004AD190F883204D4B13441F79384605F0B7
:1029E000C7F9236893F8802083F89970134493F80B
:1029F000B5707B1E072B72D8DFE803F0045D71040D
:102A00007171710400F0BEFC394605F047F82846A4
:102A100005F070FE3946012005F0B0F9012E39D1DC
:102A2000E81C266803F056FA236886F8850093F8B8
:102A3000852032B1402504F097FD284605F0B6FE0A
:102A4000236893F85020023A012A13D9002240F655
:102A500008000321A3F88100C3F8892083F8A82087
:102A600083F8701003B0F0BD002101F03FFF20B3E8
:102A70002068AEE793F880201A4492F8B510012937
:102A8000E4D1002005F0B8FE2368DFE700F080FC09
:102A900005468CE7681D276803F01CFA236887F851
:102AA000850093F88520002ACBD016F00C0F14BFB8
:102AB00055255025BFE70D20A6E7256895F88530F8
:102AC00093B900230121284685F87010A5F8B2308B
:102AD00085F8B43003B0BDE8F04001F073BF4FF4A7
:102AE000FA613220FDF72AFF019005F06BFE04F039
:102AF00059FD019885F885002568E2E740F2EE313E
:102B00003220FDF71BFF00BF200A002010FE01004D
:102B100008B503F087FB044B187005F0FDF9BDE81C
:102B20000840FFF739BF00BF1000002010B503F0C8
:102B300079FB0D4A0D4B1468187094F885302BB949
:102B400005F0EAF9BDE81040FFF726BF05F03AFEB0
:102B500004F028FD002384F8853005F0DDF9BDE898
:102B60001040FFF719BF00BF200A0020100000200E
:102B700038B50446FFF71CF9237A032B77D03E4D76
:102B8000002B49D12A683D4992F8833092F84800D9
:102B90000133A1FB034C0CF4FF7404EB5C041B1B1E
:102BA00040FA03FC1CF0010FDCB216D10133A1FB8B
:102BB000034C2CF0010404EB5C041B1B40FA03FCE7
:102BC0001CF0010FDCB208D10133A1FB034121F05D
:102BD000010404EB51015B1ADCB282F8834092F9E4
:102BE000540005F0B5F82C6894F8863083B1D4E928
:102BF00028126FF000439A4208BFB1F1FF3F07D09F
:102C00000DF02CF9D4E92823904271EB030305D28F
:102C1000BDE83840FFF7C0BE2A68E0E7012003F0B6
:102C2000CFF90028F4D02D6803F008F904460DF020
:102C300015F963011B1B4FEAD46262F100025202D4
:102C400042EAD3525B021B1942F1000C4FEA8C1E80
:102C50009A014EEA936ED31A6EEB0C021B1942F1E5
:102C600000021B1842EB0101C5E92831D0E74FF4FF
:102C700011613220FDF762FE200A0020ABAAAAAA49
:102C800090F83E00003818BF01207047014B024AFF
:102C90009A607047200A0020F0000020036823B1EA
:102CA000054A916813600B68184710B540F6541137
:102CB0003220FDF743FE00BF200A002038B50E4D3C
:102CC00000F0BCFB2C6894F8853063B90023012127
:102CD00084F87010A4F8B23084F8B4302046BDE80F
:102CE000384001F06FBE05F06DFD04F05BFC002381
:102CF00084F885302C68E9E7200A002090F84030FD
:102D000013F0FD0F14BF0120002002F051BF00BFDF
:102D100038B590F84030044613F0FD0F00F1420141
:102D200014BF0120002084F8410002F029FF94F82C
:102D30004030023BDBB2012B94BF0123002384F817
:102D4000863000D938BD03F079F805460DF086F8D5
:102D50006B015B1B4FEAD56262F10002520242EA4C
:102D6000D3525B025B1942F1000C4FEA8C1E9A01B0
:102D70004EEA936ED31A6EEB0C025B1942F100021D
:102D80001B1842EB0101C4E92831002003F018F9B7
:102D90000028D7D140F6CB113220FDF7CFFD00BF80
:102DA00090F85030032B0ED0013B012B01D90020AD
:102DB000704790F8510000F0FD00A0F10100B0FA5A
:102DC00080F04009704790F85200A0F10100B0FA7D
:102DD00080F04009704700BF10B5044611B190F86B
:102DE00085306BB994F85030032B01D000F026FBEE
:102DF0000020A4F8B20084F8B40084F8700010BD7C
:102E000005F0E0FC04F0CEFB002384F88530E9E710
:102E100008B58E300BF0D2FF002008BD0249022217
:102E200036300CF086BA00BFF51C000010B5012149
:102E300004460020FEF7FAF9002836D0227812F076
:102E400001032AD1012112F0020F08D000EB030C7C
:102E50000B46A17880F8501002218CF8B51052076B
:102E600006D50344E17880F85010082283F8B52095
:102E7000237980F84030637980F8513013F0FD0FEA
:102E80000CBF0123002380F84930A37980F8483033
:102E9000E37980F85330002010BD617880F850103D
:102EA000012380F8B5300221CDE740F641213220E0
:102EB000FDF744FD2DE9F041012182B006460020D6
:102EC000FEF7B4F9012104460846FEF7AFF90546BE
:102ED000204601F0D9FB02E094F870301BB194F861
:102EE0007030012BF8D1002D47D0284601F0CCFBE3
:102EF00002E095F870301BB195F87030012BF8D1D5
:102F000000F030FA00210F463F2240F20718204619
:102F10000AF00CF904F1600084F8507084F88370B2
:102F200084F85460A4F848800BF050FF3F223946E3
:102F300028460AF0FBF885F8507085F8837085F80C
:102F40005460A5F8488005F160000BF03FFF0023B6
:102F500084F8AB3040F2011140F20272C4F8AC3098
:102F60006846CDE90033ADF80010ADF80520FFF755
:102F70005DFFC0B902B0BDE8F08100F0F3F93F2277
:102F8000294620460AF0D2F840F2071384F8505040
:102F900084F8835084F85460A4F8483004F1600049
:102FA0000BF014FFD3E740F66B013220FDF7C6FCAF
:102FB000F8B51D4E03460F46002001217360FEF751
:102FC000F7F838B34FF49C72002104460AF0AEF8CB
:102FD00001210846FEF7ECF8054688B14FF49C72D3
:102FE00000210AF0A3F8B368CBB13846FFF762FFBF
:102FF000204601F06FFB2846BDE8F84001F06ABBAF
:10300000B36863B13846FFF755FF2046BDE8F84086
:1030100001F060BB40F672013220FDF78FFC40F6F4
:103020007C013220FDF78AFC200A002008B590F8C8
:103030007030022B15D1023901290DD84AB90B4B3A
:103040001B680022A3F8B22083F8B42083F8702014
:1030500008BD00F0F3F9F2E740F67F213220FDF7DA
:103060006DFC40F671213220FDF768FC200A00203B
:1030700008B500231A461946603002F037FD0028D3
:103080000CBF0C20002008BD2DE9F04705468CB090
:103090000C4600200121FEF7C9F8002800F030811D
:1030A0000646B83001F04EFB28B93046FFF7E8FD80
:1030B000002800F0FE8005F1250702A9384600F03F
:1030C0001DFCE87CD5F80920D5F80D30D5F8111095
:1030D000D5F81560C4F80320C4F80730D5F81920D6
:1030E000D5F81D30C4F80B1010F01009D5F82110D8
:1030F000C4F80F6004F10308C4F81B10C4F81320CF
:10310000C4F8173058D0430740F1E9800023E37238
:103110000423237002F0A2FC0746002800F09C80E4
:103120002378042B40F0F58094F80D9019F0100FDF
:1031300000F0EB807D4ED4F80300D8F80410D8F8E6
:103140000820D8F80C3094F80BA006F1080CACE875
:103150000F00D8F81000D8F81410D8F81820ACE8F0
:10316000070004F11F01524606F1240009F066FF32
:1031700019F0040148D0F37EFE2B45D12373338C24
:10318000A4F81130737CE374337AE3700123237164
:10319000737A6371D6F80A30C4F80630F389F0699F
:1031A00063811123C4F80D002370002F55D14FF413
:1031B0008273ADF8043063E095F82430242BA5D851
:1031C0009DF80830022BA1D0584EE522737904F106
:1031D0001F0138460BF0FCFF7279E072034613447E
:1031E000384673710BF0ECFF7379834290D0637BA8
:1031F000012262F3461363730423237002F02EFC52
:103200000028D4D04F468BE7494B327A9B886381A4
:103210000AF10A0313FB02F3E2700233727A63705D
:10322000627104EB0A03D6F80A20707CC4F8062009
:10323000032284F80CA02270587319F008002DD0D6
:1032400004232371BAF11F0F67D83A49524604F19B
:103250000D0009F0F3FEA8E7344E3068A5F108012F
:103260000AF071FFEFF3108272B633790133DBB2EB
:1032700033718AB100224FF401737271ADF80430DA
:103280009DF804209DF80530002062F3070063F3E9
:103290000F200CB0BDE8F08762B6EBE709F003033E
:1032A000032B29D029BB022B28D0002B39D1227126
:1032B000C8E71E4EA5F1080130680AF044FFEFF39D
:1032C000108272B633790133DBB2337102B962B660
:1032D00000224FF400737271ADF80430D0E79DF80E
:1032E00018600599324604F11F0009F0A7FEE67246
:1032F0000EE701232371A5E72071A3E72371A1E75E
:1033000040F2C9113320FDF719FB56213320FDF798
:1033100015FB55213320FDF711FBA6213320FDF7C6
:103320000DFBA3213320FDF709FB00BF2C0A002071
:10333000360A0020500A0020253270B592B20546A8
:103340000C461E460AF0C6FE45B1054A002315602C
:1033500082F8484082F849601471536470BD00BF20
:103360002C0A002038B5064C00252068E564A4F836
:1033700050500AF0D2FE94F848306564237138BD8D
:103380002C0A0020014B93F8490070472C0A0020BA
:1033900010B5174C606C08B12D3010BD20680AF0D4
:1033A000C2FE6064F0B10023C0F81930C17EC0F8DD
:1033B0001130FF224FF0010C7F24C0F81D30C0F8FF
:1033C0002130C0F829306CF3461180F82B40C0F84A
:1033D0001530C0F82530C277827480F82420C17679
:1033E0002D3010BD40F285113320FDF7A7FA00BF44
:1033F0002C0A002010B5084C606C08B12D3010BDAF
:1034000020680AF090FE60640028F7D14FF4CB7179
:103410003320FDF793FA00BF2C0A002010B5064CAC
:10342000616C21B120680AF08EFE002363640023E2
:10343000E364A4F8503010BD2C0A002038B5234CAA
:10344000606C002835D0837F13B3E06C08B3C37C75
:10345000022262F34613C374002505721C490BF067
:1034600074FF606CE564D0B1827F92B92379012B3F
:103470000ED023796264013BDBB223712379FBB167
:103480000274134908300BF060FF0023A4F8503099
:1034900038BD2379A3B10023A4F8503038BD20688B
:1034A0000AF041FE60640028DED14E213320FDF792
:1034B00045FA20680AF037FE60640028C3D1F4E7BB
:1034C00040F2E5213320FDF739FA00BF2C0A002035
:1034D000893000002DE9F04F614D91462A7983B083
:1034E000012A98469DF834A09DF830309DF938B0F7
:1034F00020D06C6C07460E46002C00F087804FF001
:10350000000C0122C4F811C0C4F815C0C4F819C0D9
:10351000C4F81DC0C4F821C0C4F825C0C4F829C02F
:103520006274062E00F28880DFE806F007415586B7
:1035300086865A0003B0BDE8F08FE27E22F01302C7
:1035400042F01302E276082B04F1130239D0184638
:1035500004F1120102F078FC00287CD0A37C686C96
:1035600043F00203A374E27E84F81AB00123A4F8A6
:103570001D3052074FF0FF03E37738D484F824302E
:103580007F2384F82B3084F82CA000285ED0A04242
:1035900057D12B79013B0022DBB26A642B71027494
:1035A0003049083003B0BDE8F04F0BF0CEBEE27EEC
:1035B00022F0150242F01502082BE27604F1130204
:1035C000C5D17B7CA3747B681968C4F813109B88F1
:1035D00093802046C7E7E27E42F01002E276B2E72F
:1035E000E27E22F0120242F01202E276ABE7A8F18C
:1035F0000203012B04F1250216D9BB681968C4F82F
:1036000025109B88938084F82480B9E7286801936B
:103610000AF089FD019B6864044600287FF46FAFBF
:103620004E213320FDF78AF9D9F80030C4F825304F
:10363000B9F804309380E6E740F239313320FDF7E2
:103640007DF940F2AF113320FDF778F94FF4D771CF
:103650003320FDF773F9DB213320FDF76FF900BF4D
:103660002C0A0020893000002DE9F84F494E9DF9C1
:1036700028A099463379012B71D0746C80460F468F
:103680001546002C6DD000224FF0010B082FC4F816
:103690001120C4F81520C4F81920C4F81D20C4F85E
:1036A0002120C4F82520C4F8292084F811B004F1A1
:1036B000130233D0384604F1120102F0C5FB002892
:1036C00064D045F01A0505F01B02E57E84F81AA0C7
:1036D000FF23E37784F8243025F01B05A37CA4F8AE
:1036E0001DB01543726C84F82C907F2143F00203C7
:1036F00084F82B10E576A374002A42D094423BD183
:103700003379013B0022DBB27264337122742249A7
:1037100004F10800BDE8F84F0BF017BE98F811301F
:10372000A374D8F804100868C4F81300898891803D
:10373000FF23E37784F824307F2384F82B30E37E63
:1037400084F81AA045F01A0505F01B0523F01B03A9
:103750001D43A4F81DB084F82C90E576D0E7BDE8B1
:10376000F88F30680AF0DFFC0446706400288AD1C4
:103770004E213320FDF7E2F840F2AF113320FDF780
:10378000DDF84FF4D7713320FDF7D8F8DB21332073
:10379000FDF7D4F82C0A00208930000010B5094C40
:1037A000606C20B1807CFF3818BF012010BD2068FC
:1037B0000AF0B9FC60640028F4D14E213320FDF7F3
:1037C000BDF800BF2C0A002070B50C460546164611
:1037D0000BF0D8FB607428460BF0DFFBA074062EBC
:1037E00013D8DFE806F004190412041204000023C1
:1037F000EA1CC4E90123012161706B78063BDBB24E
:1038000023743BB10935E56070BD0023C4E9013381
:1038100063702374E36070BD002303216A1823746E
:103820000935C4E901256170E36070BD70B5C378E6
:103830000C4613F03F015BD005460BF0A3FB607410
:1038400028460BF0AAFBA0742B796370E8788309F3
:1038500023702B7913F0010641D14FF0050C4FF086
:103860000B0E624613F002011CBF05EB0C01724601
:10387000A160590744BF0132D2B213F0080166605B
:1038800002D0961CA918F2B2616113F0100102D0A7
:10389000D61CA918F2B2A16113F0200103D002F1E5
:1038A0001206A918F2B213F04003E16102D0AB187E
:1038B0000132D2B200F03F00011D891A11F0FF0160
:1038C000236214BFAB180B4663626B78013B1B1A73
:1038D000DBB2237453B10A441544E56070BD4FF068
:1038E0000B0C6E1D4FF0110E6246BBE7E36070BD1E
:1038F00020462822BDE8704009F018BC70B5067853
:1039000006F00F06072E25D00C4605460BF03AFBB5
:10391000607428460BF041FBA074062E13D8DFE834
:1039200006F0041D0412041204000023EA1CC4E97A
:103930000123012161706B78063BDBB223743BB13C
:103940000935E56070BD0023C4E901336370237459
:10395000E36070BDBDE87040FFF768BF002303213E
:103960006A1823740935C4E901256170E36070BDEC
:1039700008B540F227312120FCF7E0FFF8B50446F6
:103980000CF06CFAD4F82C2105460E46002A56D0CD
:103990004FF0000C94F832016146634604EB830358
:1039A0000CF1010CD3F8DC205FFA8CF3FE32834279
:1039B0001144F3D9D4F8D870B94214BF01270227B3
:1039C000384608F073FC312837D9431C5DD0D4E960
:1039D0003A3219188A4298BFD01AD4F8B830D4F8BD
:1039E000BC205B1B62EB0606012B76F1000255DB67
:1039F00000229842B2415ADA41F28836864228BF04
:103A000006460CF02BFAC5F174050544B54214D8EE
:103A10003946304608F09AFC78B9D4E93B20D4F80E
:103A2000E830334430449342C4F8E830C4F8F0003E
:103A300044D0BDE8F84008F0DFBB0020F8BDD4F862
:103A4000D8C094F832010727ACFB07E711461346AC
:103A500004EB83030132D3F8DC30FE331944D3B2D4
:103A60008342F5D98C451BD0D4F8D020D4F8C0308F
:103A7000D4F8D4109B1AD4F8C42062EB0102734529
:103A800072EB070311D301279AE7D4E93A30C61A3B
:103A900041F288339E4228BF1E46B2E70026B0E7B7
:103AA0005EEA070301D003278AE7022788E741F28D
:103AB0008830834228BF03461E46A2E7D4E940234C
:103AC000C4E93423B5E700BF2DE9F04F8FB00446B9
:103AD0001D46BDF8606004928B460CF0BFF9D4F827
:103AE000DC80CDE9050194F8321108F1FE039C4613
:103AF00051B1012204EB82000132D0F8DC00D2B2D5
:103B0000FE308A428444F5D9D4F8D870ADB3674505
:103B100000F02781049BA3BBD4E94067D4F8D80008
:103B2000059A3318A2EB0605B5FBF0F500FB05F589
:103B300047F10007ED18A5EB020347F10007B3F5C5
:103B4000857F00F2CE81D4F8C8309B1BB3FBF0F325
:103B500000FB0366049B03939A4604EB0A03AE1B27
:103B60004519B6FBF0F693F8B50047F100070828B1
:103B700040F08D804FF4D26935E1049A002A00F0BC
:103B80009A8000230393059B13F5FA65069B43F186
:103B9000000701F071F800F0FFFFD4F82C318146E6
:103BA0009BB3D3F8F802002101F002F88145824668
:103BB00000F02E82D4F82C01514600F53C7000F044
:103BC000C1FFD4F82C110023C4F82031002900F0E3
:103BD000BF83BAF1000F00F01682079101F058F888
:103BE0000799002800F0AF83DAF80820DAF80030EF
:103BF0009B18DAF80420C1F8F03242F10002BAF959
:103C00002430A1F81433C1F8F422494604F5807039
:103C100000F098FFB9F1000F19D0D9F80030D9F8A9
:103C20000800D9F80410C018B9F92430A4F82431D8
:103C3000CDE90057D4F8D89041F100014A4600F090
:103C4000D5FF484500F26883451947F1000701F0A8
:103C500019F8D4F8D830EB1AC4F8003167F1000332
:103C6000C4F80431002E00F0AE8042F210732946F1
:103C70003A46E6FB0312C4E92E124FF0000A012671
:103C800004EB0A0393F8B50008283FF473AF042847
:103C900000F07181022800F0A381431E072B00F27F
:103CA0003882DFE813F03A01360236029900360214
:103CB000360236029900D4E94002059E351AB5FB5A
:103CC000F7F507FB05F515EB000906F20B15A5EB5B
:103CD000090542F10002AF4294BFEF1B2F460029B5
:103CE00000F0B682BB429DBFFE3FA7EB0807012351
:103CF0000023012915D0D4F8E00000F1FE06BE42F1
:103D000003D8FE3F01333F1ADBB2022909D0D4F8B1
:103D1000E41001F1FE00874203D3FE3F01337F1A16
:103D2000DBB204EB83019A46D1F8DC8004EB0A0194
:103D300091F8B500082800F08281042800F0E481A1
:103D4000022800F0A782411E072900F2E281DFE885
:103D500011F08202E001E001E501E001E001E00193
:103D6000E50194F8283123B1B4F92431002B7FF414
:103D7000D1AE049B002B40F0DE82D4E92E126FF00E
:103D800000439A4208BFB1F1FF3F00F0518194F81F
:103D90003131234493F8B500082800F078820428D4
:103DA00000F07C82022800F05982431E072B00F2AB
:103DB000B081DFE813F05E02AE01AE01BD01AE01DD
:103DC000AE01AE01BD014FF0FF326FF00043B246CD
:103DD000C4E92E23012653E74FF0A009022800F082
:103DE00001812823994405F003F9D4F8B820C44B85
:103DF000511B00F52340D4F8BC2000F1A100A3FB27
:103E0000003062EB070209F1C509012909EB9013A3
:103E100072F10000C0F289800020884570EB020238
:103E200000DB884604EB8A0A039ADAF8DC00404596
:103E300028BF4046C4F8EC0012B9002E40F0A08024
:103E4000D4F82C21049929B1D4E94089C4E9305728
:103E5000C4E934890021C4E93257C4F8E8308BF84A
:103E60000B10ABF80810002A62D094F832C10E464D
:103E70000A4604EB82020131D2F8DC20FE321644FD
:103E8000CAB26245F5D9D4F8D820964214BF0122AF
:103E900002228BF80A20039ACBF80430002A3FD084
:103EA00001228BF80020D4F8B8200599D4F8BC4042
:103EB000521A069964EB0104012A74F100015DDBDA
:103EC00090490025914275EB040400DA0A46D21AA3
:103ED000CBF8102083428CBF002001200FB0BDE83A
:103EE000F08F94F8B500049B8DF82030082800F07E
:103EF0006581042800F0F581022800F0F581431E59
:103F0000072B00F20681DFE813F0BB010401040176
:103F1000AD01040104010401AD014FF4A8795DE78E
:103F2000CBE904578BF80020D4E74FF0000879E77D
:103F3000D4F8D8E094F832C14FF007081146AEFB30
:103F40000889164604EB82020131D2F8DC20FE32E9
:103F50001644CAB26245F5D9B64547D0D4F8D02048
:103F6000D4F8D410AA1A67EB0101424571EB09029B
:103F70003AD301228DE740F2BE2934E70022A6E7BA
:103F8000710089B2B4F9240107930BF0EEF9B4F88B
:103F90002411D4F82C21079B091A09B2A4F8241182
:103FA00062B1A2F81413D2F8F0120918C2F8F01294
:103FB000D2F8F41241EBE071C2F8F412D4F8001117
:103FC000C6172D1846EB07070818D4F80411C4F8D3
:103FD000000146EB0101D4F8EC00C4F8041131E70C
:103FE0004FF048091823FDE6022252E7D4F8C0201A
:103FF000D4F8C410AA1A67EB0101424571EB09021B
:10400000F2D2032245E700220023C1E9BC23FCE5EC
:10401000D4F82C11D4F80831D1F8F822934238BFE3
:104020001346C4F8083101F53C73C4F82031D0E5DB
:10403000049E0123DDE90557B246039320E64FF4C1
:10404000D2660393079204F0D3FF2D49079A00F537
:104050002340A130A1FB003007F1C5010E4406EB5F
:1040600090104045039B28D804EB8A03D3F8DC303A
:10407000A3EB0708B8F1000FC0F2608115EB09054A
:10408000D4F80011D4F8D86042F10007D4F8C02069
:10409000531AB3FBF6F306FB03F35B18C4F80031C5
:1040A000A5EB0303B3FBF6F6D4F8043143F10003A8
:1040B000C4F8043100230393E2E594F832119942E5
:1040C0000ED90133DEB2D4F8D8309D4280F0298178
:1040D00004EB8603B246D3F8DC8008F1FE05C9E79D
:1040E000D4F8D8309D4263D3B5EB430F4FEA430178
:1040F00080F01C8104EB8A030D46D3F8DC80B9E71D
:10410000D34D62100040420F4FF4A07606F5BF7603
:1041100097E740F211110520FCF710FC04284FF03E
:10412000A006F3D0022800F0B68028210E4488E7CC
:1041300004284FF0A00540F09E8005F5BF7504F0FF
:1041400057FF864A00F52343A133A2FB0323C5355D
:10415000059A05EB931540F20B13D3180C93069BAD
:10416000099543F100030D934FF0000A4FF400331B
:1041700008A88DF820A00A9307F0A2F9002800F003
:10418000C6800C9AD4F8B8300D999B1AD4F8BC208C
:1041900062EB01025B1B62F10003002B4FF0010395
:1041A000DDE9055703935646BFF66AADD04667E58D
:1041B0001D4604EB8A03D3F8DC805BE74FF4D2653D
:1041C00004F016FFD4F8D810D4F8C830D4F82C6115
:1041D00000F5234205F1C500D4F800515B1BB3FB89
:1041E000F1F301FB03F35B195C4D0C9302F1A102A7
:1041F000A5FB025200EB9212D4F80401099240F19F
:10420000000000220D90ADF828208DF82B20002E04
:1042100047D094F832511046134604EB8303013221
:10422000D3F8DC30FE331844D3B29D42F5D281423C
:104230000CBF022001208DF82A0008A80AF035FEE4
:104240004FF0000ADDE90C570646CDF80CA017E543
:104250000B468A466AE54FF4A87663E7482518239B
:104260001D446CE704284FF0A0050BD105F5BF7580
:10427000A6E74FF4A8750228F1D028231D445EE775
:104280004FF4A875022830D028231D4498E74FF436
:10429000D26554E7482618210E44D2E64FF4A075A3
:1042A0004BE7072594F832C1A1FB055E374632463D
:1042B00004EB82020136D2F8DC20FE321744F2B25F
:1042C0006245F5D9B94215D0D4F8D0209B1AD4F85C
:1042D000D42060EB0202AB4272EB0E0308D3012044
:1042E000A9E74FF4A075C1E7482518231D4467E7E7
:1042F0000220A0E7D4F8C0209A1AD4F8C43060EBAA
:104300000303AA4273EB0E03F2D2032093E740F2B9
:10431000BB412120FCF712FB40F28F312120FCF73A
:104320000DFB40F24D412120FCF708FB40F26A41B1
:104330002120FCF703FB0123039324E440F27341A3
:104340002120FCF7FBFA40F227712120FCF7F6FA56
:1043500040F221712120FCF7F1FA00BFD34D621029
:10436000F0B5013989B00446072900F21081DFE871
:1043700011F05C003600360073000E0178000B006F
:1043800009012046FEF74AFD94F82831002B00F081
:10439000128194F83031002B3ED1D4F82C0120B199
:1043A000D4F82031002B00F0018104F5807000F07A
:1043B000A5FB2046FEF75CFE002384F83031C4F8EC
:1043C0002C3184F8283194F8B00007F045F8002823
:1043D00000F0F680202384F8B03009B0F0BD90F8EA
:1043E000B43090F8B32003F01F0352EA032340F0E7
:1043F000C48000220092012302A92046FFF764FB3B
:104400000028BED094F8B00002A907F06FF9002888
:1044100000F0D88009B0F0BDD4F82031002BC4D012
:1044200004F5807000F002FCC3E7012180F82A1136
:1044300090F8293103F0FF05002B43D0FEF7CCFCA8
:1044400094F82A31002BE5D003F016FE06F032FE78
:10445000002384F82A31DDE709B0BDE8F04004F01C
:1044600039BA90F8293143BB90F8B43090F8B320B2
:1044700003F01F0352EA032379D090F8B13013F010
:104480000C0F1AD090F8F830BBB9012180F8F81061
:1044900044F2365007F05AFF78B9D4F8E830D4F82F
:1044A000F00044F2365210441344C4F8E830C4F823
:1044B000F00007F0A1FE0028ACD109B0BDE8F04043
:1044C000FEF7FCBB90F8B00006F0E4FFD4F8003132
:1044D00094F83261D4F8D8700294C4E9300105959B
:1044E000A0EB030CB6B1BCFBF7F207FB0233C01A1A
:1044F0002A462B4604EB8303D3F8DC3003F1FE019C
:10450000884203D3FE380135C01AEDB20132D3B26E
:104510009E42EFD294F8B43094F8B32084F831512D
:1045200003F01F0352EA03238DF8185034D0D4F857
:10453000F420039203238DF81030002702A88DF891
:104540001970FEF7ABFB94F82A31002B3FF462AFF1
:10455000D4F8E800B538C4F8F00007F04DFE0028A4
:104560007FF458AF4FF4DC712120FCF7E7F9FFF737
:1045700005FA00287FF44EAF9FE701220321FEF7E2
:1045800055FD36E740F2ED112120FCF7D7F940F256
:10459000F1112120FCF7D2F9BC4538BF0123BC45FD
:1045A0008DF8103034BF00270127C7E700F53C70B5
:1045B00000F0A4FAF9E640F265112120FCF7BEF9FB
:1045C000FFF7D6F940F25D712120FCF7B7F900BF83
:1045D000014B1870704700BF1100002070B590F8B3
:1045E00028311BB903F0FF05284670BD0446FF23A0
:1045F00080F8293190F8B00007F084FB94F8B000FF
:1046000007F0CEFF00212046FEF7E6FB0546A0BBE3
:1046100094F830313BB1D4F8203153B104F58070B7
:1046200000F004FB09E0D4F82C0110B1D4F82031DB
:10463000F3B104F5807000F061FA002684F8296176
:1046400094F830312046B34218BF0C25FEF710FD18
:1046500084F83061C4F82C6184F8286194F8B000C3
:1046600006F0FAFE70B1202384F8B030284670BD01
:1046700000F53C7000F042FADBE74FF4177121209F
:10468000FCF75CF9FFF774F910B5044690F828318F
:10469000C3B90023A4F8243194F8283103F0FF00B3
:1046A0009BB942F2107340F2712142F2126284F817
:1046B0003201C4F8D830C4F81031A4F81411C4F889
:1046C000DC2010BDFFF78AFFE3E74FF430712120B3
:1046D000FCF734F91A4B002210B51A601A6841F63B
:1046E000690320219A4280F8B0101FD8044690F840
:1046F0002831C3B90023A4F8243194F8283103F0F9
:10470000FF00C3B942F2107340F2712142F212620B
:1047100084F83201C4F8D830C4F81031A4F8141168
:10472000C4F8DC2010BDFFF759FFE3E740F649016C
:104730002120FCF703F94FF430712120FCF7FEF83B
:10474000800A002090F87000003818BF01207047E0
:1047500030B585B090F82821002A68D191F800C0C2
:1047600002F0FF03CDE9013303931CF0010343D1B1
:104770001CF0020F4FF001024FF002059E461C464E
:1047800046D004AB03EB8E0E0C694EF80C4C1CF0BB
:10479000040FCC682B463FD1013AD2B240F27121CE
:1047A00080F8322113F00102C0F8D840C0F810415F
:1047B000A0F8141103D00199FE39C0F8DC10990754
:1047C0000BD504A901EB820100EB820451F80C1C0B
:1047D0000132FE39C4F8DC10D2B21B0709D504AB94
:1047E00003EB820300EB820053F80C3CFE3BC0F865
:1047F000DC30002005B030BDD1E901421CF0020FD1
:1048000001924FF003054FF002024FF0010EB8D1B4
:104810001CF0040F1A46BFD0D1E9054504A901EBED
:10482000820143F00803DBB241F80C5CB6E74FF4B9
:1048300030712120FCF782F8F0B589B0002A3CD114
:10484000044690F8283103F0FF06002B3DD10F46B7
:1048500080F82961FF2380F8283190F8320184F82C
:104860003161A4F82461B4463546334604EB830332
:104870000CF1010CD3F8DC205FFA8CF3FE3283429A
:104880001544F3D91848C4F80851214606F0B8FD7C
:10489000202884F8B00014D000970023012202A938
:1048A0002046FFF711F9C8B194F8B00002A906F04C
:1048B0001DFF70B1304609B0F0BD1126304609B079
:1048C000F0BD0726304609B0F0BD0C26304609B0D1
:1048D000F0BD40F209312120FCF730F84FF442716D
:1048E0002120FCF72BF800BF6143000070B590F861
:1048F000293113B10026304670BD04460D460BF039
:10490000ADFA94F8B130062D57D8DFE805F027044A
:104910000407360404000126304670BD13F00C0F66
:1049200014BF4FF461754FF45775D4F8C020D4F814
:10493000E830801AC53B0544AB428CBF01260026F7
:10494000D9D82046FFF71AF80028D4D0D4F8E86068
:10495000C53EB5422CBF00260126CCE7082B26D049
:10496000042B27D0022B17D05A1E072A0FD8DFE8B6
:1049700002F0180E0E070E0E0E074FF4FC75D4E76A
:10498000042B4FF0A0050ED105F21625CDE740F21D
:1049900011110520FBF7D2FF482518231D44983537
:1049A000C3E74FF4A875022BF7D02823F6E74FF49E
:1049B000E565BAE74FF4A075E6E740F26E312120D5
:1049C000FBF7BCFF10B590F82A3188B0044623B13C
:1049D00090F8292102F0FF036AB194F82A310BB94B
:1049E00008B010BD03F048FB06F064FB002384F818
:1049F0002A3108B010BD00931A4602A9FFF764F8E7
:104A000058B194F8B00002A906F070FE0028E4D175
:104A100040F244712120FBF791FF2046FEF7FEF99A
:104A2000DBE700BF2DE9F043DFF88080012383B08E
:104A300088F8003000254FF6FF7720261DE0009B08
:104A4000EBB193F81823D2B11888B8421DD0214693
:104A5000FCF7ECFB8146F0B190F8190307F0A0FDDC
:104A600099F8190389F8184306F0F6FCC0B189F8E3
:104A7000196309F53C7000F041F8CDE9005568462E
:104A8000FCF70EFC04460028D9D0002388F800303B
:104A900003B0BDE8F0834FF4F9713520FBF74EFF0A
:104AA00040F2E1113520FBF749FF00BF840A0020E6
:104AB000024B0022C3E90022FFF7B4BF840A0020A2
:104AC00008B5FFF7AFFF002008BD00BF014B5870CD
:104AD000704700BF840A0020024B0022C3E9002275
:104AE000704700BF8C0A0020034B186808B10C20E7
:104AF00070475860704700BF8C0A0020C369ABB193
:104B000010B4D0E90214DA68D0F818C0C3F818C09D
:104B1000214411448269D96032B1D361002200235B
:104B2000C0E9062310BC7047DA60F7E782690449E0
:104B30000A6002B1D36100220023C0E90623704756
:104B40008C0A002008B5C161A1B18B6988618361BD
:104B500073B1D861C1690023C36041B1CB6823B18F
:104B60008268934211D39B1AC3600023CB6008BDB7
:104B7000C360F3E7074A136883611BB1D861C16959
:104B80001060E8E71060C36008BD2D213720FBF7F7
:104B9000D5FE00BF8C0A0020044B1B6823B11846C9
:104BA0009B69002BFBD17047184670478C0A002088
:104BB0000D4B1B68B3B100B584464FF0FF3E00209B
:104BC00000E01346DA68944503D8964584BF18463A
:104BD00096469A69002AF4D111B9002808BF1846F0
:104BE0005DF804FB184670478C0A002030B585B08C
:104BF000DDE90834C01A61EB0404002C15460BDB18
:104C0000214603AA009202AB2A4608F06DF9002C57
:104C1000039805DB05B030BD404264EB4401F0E78A
:104C20000028F7D0281A05B030BD00BF036A2DE96F
:104C30003048DBB182689C68A24217D3D0E90615E0
:104C4000D0E906BCC3E906BC4DB1AB61996951B16D
:104C5000C068CB610244121BDA60BDE83088054DA4
:104C60002B600029F4D1D960BDE83088CD213720F0
:104C7000FBF764FE8C0A0020014B01221A71704779
:104C80008C0A0020014B00221A7170478C0A002008
:104C9000014B1879704700BF8C0A002008B523210A
:104CA0001A20FBF74BFE00BF38B505460C4691F8BD
:104CB000FB3113B191F805328BB9002D50D02B7810
:104CC00073B194F8F0318BB304F1B0000BF073F8CA
:104CD00000230022C4E968230023C4F8A83138BDAA
:104CE00094F8F2316BB9B4F8AC010221FCF79EFAEA
:104CF00038B104F2152100F5AE7009F0CBF90028A7
:104D00003ED0B4F8B0010921FCF7A6FA002844D13E
:104D10006B6F002BE3D1B4F8AE010821FCF79CFACD
:104D20000028DCD060211A20FBF708FE94F8F2314D
:104D300003F0FF017BB9B4F8AC01FCF777FA50B18E
:104D400004F2152100F5AE7009F0A4F918B92B2171
:104D50001A20FBF7F3FD4FF6FF73A4F8AC31B3E76D
:104D600094F8F23173B9B4F8AC010221FCF75EFAA1
:104D700040B104F2152100F5AE7009F08BF908B9C5
:104D8000FFF78CFFB4F8B0010921FCF765FA0028A1
:104D9000A5D04E211A20FBF7D1FD53211A20FBF795
:104DA000CDFD00BF90F8F23123B9B0F8AC0102217B
:104DB000FCF73CBA0020704738B550B390F8C730C4
:104DC0002A2B04461FD14AB92B2380F8C73094F907
:104DD0000831002BA8BF002017DB38BD1F230D466C
:104DE00080F8522180F85331322380F8C7300029EF
:104DF000EDD0B1F8AE010821FCF718FA68B12946E8
:104E0000FFF752FFE3E70C2038BDDA211A20FBF749
:104E100095FDB3211A20FBF791FDD5211A20FBF750
:104E20008DFD00BFFFF7C8BF014B1868704700BF7A
:104E30001801002038B50D210546FCF7B9F9A0B1DD
:104E4000044641F23022002108F070F941F201429B
:104E50000123A4F8A42084F8F230FFF7E5FFC4F89A
:104E60001841C4F82001258038BD3A215320FBF7B2
:104E700065FD00BFF0B5070CA7F5AA42144B543AE4
:104E8000012A03EA90231FD927F4004042F6AA2200
:104E9000801A18BF01200022162116461F2487EA17
:104EA000060562EA0505013510D0DD03ADB245EA1D
:104EB0005606E503ADB2013945EA52024FEA530303
:104EC0004FEA5404EBD1F0BD0020E4E70020FAE7FC
:104ED000E0FF3F00F8B51E468B1F9BB240F67A45B7
:104EE000AB4207461046BDF818203AD8841FA4B23A
:104EF000AC428CBF002401242546A7BB1C4B1B7968
:104F00006BB15CB96FF450654B19062B06D86FF482
:104F10005063C418062C8CBF002401242546F5B12B
:104F2000814223D8B6F5FA7F20D2A2F10A039BB2C0
:104F300040F676418B4219D809F029FA013642F23F
:104F40001073B6B25A434643B2EB460F0ED9BDF8C2
:104F50001C50BDF8200085428CBF00250125284645
:104F6000F8BD0024C8E797F88130C9E70025F6E7C7
:104F7000600B0020012821D8022B0DD1114BA2F586
:104F80007A7098421CD8A1F57A70984218D88A4253
:104F90008CBF1220002070470B48824210D8012B92
:104FA00007D140F252739A420AD9084BA1F6C410B5
:104FB000EBE7042BF9D140F6C313F4E71220704756
:104FC00030207047A7F970028FFD7002CBF370029A
:104FD00010B503210020FCF729F9044670B903211C
:104FE000FCF7E6F8044620B940F21B313920FBF704
:104FF000A5FC034B93F928100AF0B9FC204610BD1C
:10500000600B0020F7B5114B9C7EDD7E9F8B064622
:1050100014B900F03DFD0446A5B900F039FD054680
:1050200014B9092003B0F0BD0028FAD0304601A918
:105030008DF804408DF80550ADF8067009F066FF54
:105040000020EFE7002CF1D1EBE700BFC40F0020F8
:1050500008B509F0D2FE00F0B9FE00F027FD0AF015
:1050600066F901F001F901F0D1FA01F025F901200A
:1050700000F0EEFC0D4A0E490E48116000231B2182
:1050800053839180D383138413760B4A8261838088
:1050900080F8293001F1A471012283750160027743
:1050A000BDE808401E300AF059BE00BFC40F002002
:1050B00003021B00600B0020F9000007044B41F6BF
:1050C0004C521B21C3E9022219745A61FFF7C0BF79
:1050D000C40F00207FB5364DAB68044640F8443F0E
:1050E000FCF780FD064600F0CDFCA4F84E60314E82
:1050F0002B7C84F84C3010F0200F33681DBFAA8839
:105100006988A4F86E101B2208BFA4F86E20A4F8CA
:1051100070205BB1012302A88DF8083003940AF0D7
:105120000AFE336894F9801020889847224B1A7938
:10513000002A14BF0122002203F1080384F8812011
:105140000FCB04F18C0686E80F0041F64C5318BFD4
:105150004FF47A73E3612046FFF754FF064648B1E7
:1051600020880221FCF778F8F0B140F27E51392016
:10517000FBF7E4FB04F128000AF0EAFD6B780193E9
:105180002B7800936A88AB8804F1180104F11400AD
:10519000FCF7BEF8636913B940F28F51E7E7A369E2
:1051A0001BB94FF4B261E2E70926304604B070BD86
:1051B000C40F00201C010020600B00202DE9F341EA
:1051C00005460E460AF018FC002800F0AE8028467E
:1051D0000AF092FC30B1B6F80130013B7F2B01D9C7
:1051E000122404E028460AF08BFC20B90C24204647
:1051F00002B0BDE8F0812846FCF772FD0028F5D129
:1052000028460AF09EFB80460028EFD1284601F090
:105210006DFE0028E4D0B6F80170F17842F2107308
:1052200028465F430AF054FC04213078FBF7FEFF68
:10523000062104463078FBF7F9FF002C77D038B10F
:1052400041F2F4713920FBF779FB90F8BD800446F8
:10525000404E3368002B6CD0403420460AF05FFD8E
:10526000002866D020460AF04EFD002861D1B8F132
:10527000000F08D0384B20461B689847002858D0AC
:1052800041F60801DEE73549336849694246204660
:10529000984700284DD041F60D01D3E728460AF083
:1052A0002BFC40B902210DF10600FBF749FF064631
:1052B00058B90D249BE728460AF030FC0028F1D1AC
:1052C000274B1B79002BEDD18AE7002100F032FF3C
:1052D000BDF806303380284631460AF040FC2846A7
:1052E0000AF01CFCA0B928460AF022FC0146304610
:1052F000FFF7F0FE044600287FF479AF3A463146C6
:105300002846FCF76DFB044620B141F6390199E7C8
:105310000121ECE7124B1B6B002B3FF468AF0246F8
:1053200006F5B1713046984761E742245FE70028EF
:105330008BD128460AF0D8FB01460028AED13A4668
:105340002846FCF74DFB044600283FF450AF41F6D9
:10535000160177E72401002020010020C40F00205F
:10536000600B0020014B93F928007047600B002070
:10537000034B5A8802801B7883700020704700BF5F
:10538000C40F002070B50378032B8AB0044603D9FC
:10539000122528460AB070BD4378032BF8D8437E07
:1053A00085780BB9012DF3D115F0F80FF0D1AB07CB
:1053B0004DD5022DECD15D4B5B79002BE8D000F090
:1053C00067FB35EA000340F0AF80A67816F00105D0
:1053D00006D02269A168E0780123FFF7CBFD0546DE
:1053E000B00707D52269A168E0780223FFF7C2FD64
:1053F0002843C5B2710707D52269A168E078042364
:10540000FFF7B8FD2843C5B2002DC2D1052E0FD13C
:105410002679E168626904233046FFF7ABFD054653
:105420000028B6D1E378B342B2D1A3689942AFD194
:10543000237E013B062BABD801210020FBF7F6FEB3
:10544000054638B940F669513920FBF777FA6E07FF
:105450009ED0B4E7B830FFF775F9002862D16278C2
:105460008DF8092022788DF80820227E8DF80A20F8
:10547000627EA3788DF80C30003A18BF01228DF8B7
:105480000B20DA078DF804302DD513F004032169C1
:10549000A06803D04208914228BF1146E278012A51
:1054A0001ABFB2FA82F252090222CDE904018DF844
:1054B00005205BB12379012B1ABFB3FA83F35B0993
:1054C00002238DF80730E368CDE90831284603A9A7
:1054D000FFF73EF9054600287FF45BAF01A8FDF712
:1054E000A5FC054655E7022B0CD1E278012A1CBF2A
:1054F000B2FA82F35B098DF80630A368069323693C
:105500000793E3E75B07E1D5E378012B1ABFB3FA12
:1055100083F35B0902238DF80730A368089323699E
:105520000993D3E70C2534E7112532E7600B0020FF
:1055300000B589B043798DF8043083798DF8053052
:1055400001238DF8063003788DF80730B0F801306C
:1055500040F271214B430393B0F803204A430C49B6
:105560000592C97E8DF81C1000218DF81D10094987
:10557000A2F6C4128A4209D8A3F6C4138B4205D8F6
:1055800001A8FFF7FFFE09B05DF804FB3020FAE741
:10559000600B00203C369C002DE9FF410778EF2F7F
:1055A00004460D4601D912259CE0B0F80130ADF853
:1055B0000C309DF80C30D8066CD4990603F0030229
:1055C00065D5002AEFD11A0703D503F06703012B35
:1055D000E9D163781E0711D42179E278E07942EAB3
:1055E0000122617942EA0142A17941EA0021207A4F
:1055F00041EA00418A42D6D81F2AD4D9627A013AB8
:10560000062AD0D8A27A032ACDD813F0040102D1F9
:10561000023A012A03D8E27A012AC4D811B9A27C3D
:10562000032AC0D813F01001227D43D0012ABAD139
:10563000237E012BB7D800294CD06378D80703D537
:1056400000F0B4F900284CD06378227D03F01801F3
:10565000082959D1022A44D11B0709D4E279A37938
:1056600043EA0223227A43EA0243B3F5804F38D853
:105670001FFA87F803214046FBF7D8FD06460028AD
:1056800048D0FCF72DFB002850D00C252AE0032A37
:1056900099D188E713F0600F85D103F00F0203F072
:1056A0000703052B95D0931E012B92D9002A7FF476
:1056B0007AAF8EE7022A04D103F06F03092B7FF43F
:1056C00072AFA37D013B022B3FF66DAFE37D0F2B45
:1056D000AED968E700F0DCF981070AD4237D022BFC
:1056E00004D11125284604B0BDE8F081A37D022B2A
:1056F000F7D000F0CDF942079FD4237D032BF0D0E3
:10570000A37D032B99D1ECE7022AA5D0A27E002A23
:10571000A2D0E6E703214046FBF74AFD06460028F3
:1057200040D0214B93F928100AF021F90021384686
:105730000AF0D5FA18BB30460AF0D3F92146287092
:10574000E074304601F02AFC637E0546002BC9D088
:105750000028C7D1F16C02466846FBF79FFEF06C4B
:105760002A46012108F02BFDF16C68460422FBF764
:1057700095FEF06C2A46294608F021FDB2E740303C
:105780000AF0CDFA0028D6D0637813F0330F7FF4F7
:105790000AAF3046A77D0AF0CBF908F06FFE8742CA
:1057A000C9D072E707259DE7600B002030B502796C
:1057B000042A8BB0034658D84488B4F5804F54D897
:1057C0002B4810440021027AC578ADF8041042F04D
:1057D000100242EA4502457B807C8DF80C1042EABB
:1057E000850242EAC00202F01F028DF80420BDF8D3
:1057F0000420ADF80D201A888DF80F208DF8124086
:10580000120A240A8DF811108DF814108DF810204A
:105810008DF813405A7B8DF815205A798DF8162093
:105820009A79D3F807008DF81720B3F80B209B7BEB
:105830008DF81E307F238DF81F30012306908DF8E0
:105840002110ADF81C208DF820308DF8223003A8EF
:105850008DF823108DF824108DF825108DF8261062
:1058600001A9FFF799FE0BB030BD1220FBE700BF86
:10587000EEFE010013B50378044653B1002301A8DE
:10588000019303F0D7FC019B9B0702D00C2002B0D0
:1058900010BD024B22781A710020F8E7600B00203F
:1058A0000278034672B1427862B142881A2A09D955
:1058B00082881A2A06D9044A006810609B8893805F
:1058C0000020704712207047C40F0020024B02686E
:1058D0009A600020704700BFC40F00200378FF2BA0
:1058E00015D14378FF2B12D18378FF2B0FD1C378CA
:1058F000FF2B0CD1037923F0E0021F2A07D113F00C
:10590000E00F04D0034A5B09D376002070471220D1
:10591000704700BF600B00200378012B9FBF044A33
:1059200003F001030020137788BF1220704700BFE7
:10593000600B0020014B187600207047600B0020A0
:10594000014B587600207047600B002008B5FFF728
:10595000C3F8FFF7ADF8FFF705FDBDE808400146C5
:105960000148FDF725BB00BF940B002008B501F0EE
:10597000B5FAFCF727F8BDE80840014801F098BAED
:10598000940B002010B5064C064904F5037009F08D
:10599000DBF904F504700449BDE8104009F0D4B9FE
:1059A000940B00202801002030010020014B93F8C7
:1059B0000A027047940B002010B5064C064904F506
:1059C000037009F0C1F904F504700449BDE8104002
:1059D00009F0BAB9940B00203801002040010020E2
:1059E00038B5094C0D4600F0AFFCD4F80C02C4F8F1
:1059F000045109F0A1F9FFF761FB00F099FD0123C3
:105A000084F8183238BD00BF940B0020014B93F886
:105A100018027047940B002010B50C4CD4F81002FB
:105A200009F08AF9D4F8140209F086F9FFF710FB9F
:105A3000202000F019F82F2000F016F8262000F0A2
:105A400013F8002384F8183210BD00BF940B002017
:105A5000014B83F819027047940B0020014B93F817
:105A600019027047940B0020C208054900F0070096
:105A700001238340885C20EA03008854704700BFFC
:105A800018000020014BD3E90001704718000020E6
:105A9000054B1868C0F3C022C0F30020400040EA64
:105AA000820040F0010070471800002008B503F0A4
:105AB0001BFE084A002332F82310814205D302EB73
:105AC00083039B78044A137008BD01330C2BF2D179
:105AD0000023F7E744FF0100AE0D0020024B1878C9
